{
  "abi": [
    {
      "stateMutability": "payable",
      "type": "fallback"
    },
    {
      "inputs": [],
      "name": "returnVars",
      "outputs": [
        {
          "internalType": "uint256",
          "name": "",
          "type": "uint256"
        },
        {
          "internalType": "uint256",
          "name": "",
          "type": "uint256"
        },
        {
          "internalType": "uint256",
          "name": "",
          "type": "uint256"
        }
      ],
      "stateMutability": "pure",
      "type": "function"
    },
    {
      "inputs": [
        {
          "internalType": "uint256",
          "name": "withdraw_amount",
          "type": "uint256"
        }
      ],
      "name": "withdraw",
      "outputs": [],
      "stateMutability": "nonpayable",
      "type": "function"
    },
    {
      "stateMutability": "payable",
      "type": "receive"
    }
  ],
  "bytecode": "6080604052348015600f57600080fd5b506101038061001f6000396000f3fe60806040526004361060275760003560e01c80632e1a7d4d14602f578063b198c5a714604a57005b36602d57005b005b348015603a57600080fd5b50602d604636600460b5565b6077565b348015605557600080fd5b5060408051600181526002602082015260038183015290519081900360600190f35b6103e8811115608557600080fd5b604051339082156108fc029083906000818181858888f1935050505015801560b1573d6000803e3d6000fd5b5050565b60006020828403121560c657600080fd5b503591905056fea2646970667358221220619ce7c2027dbf15d811c7e0045a47814d3c82241c0a616cb9a50edba538b12564736f6c63430008190033",
  "bytecodeSha1": "202448c141ed099def5c857aebb6dff639bd0279",
  "compiler": {
    "evm_version": "istanbul",
    "optimizer": {
      "enabled": true,
      "runs": 200
    },
    "version": "0.8.25+commit.b61c2a91"
  },
  "contractName": "Faucet",
  "language": "Solidity",
  "natspec": {
    "kind": "dev",
    "methods": {},
    "version": 1
  },
  "opcodes": "PUSH1 0x80 PUSH1 0x40 MSTORE PUSH1 0x4 CALLDATASIZE LT PUSH1 0x27 JUMPI PUSH1 0x0 CALLDATALOAD PUSH1 0xE0 SHR DUP1 PUSH4 0x2E1A7D4D EQ PUSH1 0x2F JUMPI DUP1 PUSH4 0xB198C5A7 EQ PUSH1 0x4A JUMPI STOP JUMPDEST CALLDATASIZE PUSH1 0x2D JUMPI STOP JUMPDEST STOP JUMPDEST CALLVALUE DUP1 ISZERO PUSH1 0x3A JUMPI PUSH1 0x0 DUP1 REVERT JUMPDEST POP PUSH1 0x2D PUSH1 0x46 CALLDATASIZE PUSH1 0x4 PUSH1 0xB5 JUMP JUMPDEST PUSH1 0x77 JUMP JUMPDEST CALLVALUE DUP1 ISZERO PUSH1 0x55 JUMPI PUSH1 0x0 DUP1 REVERT JUMPDEST POP PUSH1 0x40 DUP1 MLOAD PUSH1 0x1 DUP2 MSTORE PUSH1 0x2 PUSH1 0x20 DUP3 ADD MSTORE PUSH1 0x3 DUP2 DUP4 ADD MSTORE SWAP1 MLOAD SWAP1 DUP2 SWAP1 SUB PUSH1 0x60 ADD SWAP1 RETURN JUMPDEST PUSH2 0x3E8 DUP2 GT ISZERO PUSH1 0x85 JUMPI PUSH1 0x0 DUP1 REVERT JUMPDEST PUSH1 0x40 MLOAD CALLER SWAP1 DUP3 ISZERO PUSH2 0x8FC MUL SWAP1 DUP4 SWAP1 PUSH1 0x0 DUP2 DUP2 DUP2 DUP6 DUP9 DUP9 CALL SWAP4 POP POP POP POP ISZERO DUP1 ISZERO PUSH1 0xB1 JUMPI RETURNDATASIZE PUSH1 0x0 DUP1 RETURNDATACOPY RETURNDATASIZE PUSH1 0x0 REVERT JUMPDEST POP POP JUMP JUMPDEST PUSH1 0x0 PUSH1 0x20 DUP3 DUP5 SUB SLT ISZERO PUSH1 0xC6 JUMPI PUSH1 0x0 DUP1 REVERT JUMPDEST POP CALLDATALOAD SWAP2 SWAP1 POP JUMP INVALID LOG2 PUSH5 0x6970667358 0x22 SLT KECCAK256 PUSH2 0x9CE7 0xC2 MUL PUSH30 0xBF15D811C7E0045A47814D3C82241C0A616CB9A50EDBA538B12564736F6C PUSH4 0x43000819 STOP CALLER ",
  "sha1": "3fff69264dbedecdf0b0d3c9ab1cc8409542ad57",
  "source": "// SPDX-License-Identifier: MIT \npragma solidity ^0.8.0;\n\ncontract Faucet {\n    receive() external payable {}\n\n    function withdraw(uint withdraw_amount) public {\n        require(withdraw_amount <= 1000);\n\t\tpayable(msg.sender).transfer(withdraw_amount);\n        // msg.sender.transfer(withdraw_amount);\n    }\n    function returnVars() public pure returns (uint, uint, uint) {\n        uint var1 = 1;\n        uint var2 = 2;\n        uint var3 = 3;\n        return (var1, var2, var3);\n    }\n\n    fallback() external payable {}\n}\n",
  "sourcePath": "contracts/Faucet.sol",
  "type": "contract"
}